:100000000C942A000C9447000C9447000C94470071
:100010000C9447000C94EA000C9447000C944700A1
:100020000C9447000C9447000C9447000C94470034
:100030000C9447000C9447000C9449000C94470022
:100040000C9447000C9447000C9447000C94470014
:100050000C94470011241FBECFE5D4E0DEBFCDBF16
:1000600010E0A0E6B0E0ECE7FBE102C005900D92E5
:10007000AE37B107D9F710E0AEE7B0E001C01D928E
:10008000A238B107E1F70E947A070C94BC0D0C94DA
:1000900000001F920F920FB60F9211248F939F931F
:1000A000EF93FF93DF93CF93CDB7DEB7E4E2F0E0B9
:1000B0008081918190937F0080937E00CF91DF912A
:1000C000FF91EF919F918F910F900FBE0F901F9016
:1000D0001895DF93CF9300D0CDB7DEB79A8389838D
:1000E000A7E2B0E0E7E2F0E08081282F2F7CE981F1
:1000F000FA81808191818295880F880F807C822B84
:100100008C93A7E2B0E0E981FA81848195818295A0
:10011000880F807E8C93A6E2B0E0E6E2F0E080817A
:1001200080688C93A6E2B0E0E6E2F0E08081282FC0
:10013000287FE981FA8186819781822B8C93A6E2C0
:10014000B0E0E6E2F0E0808188608C930F900F9041
:10015000CF91DF910895DF93CF9300D0CDB7DEB775
:100160009A838983A7E2B0E0E7E2F0E08081282F5C
:10017000207EE981FA8182819381822B8C93A6E291
:10018000B0E0E6E2F0E0808180648C93A6E2B0E02B
:10019000E6E2F0E0808180648C93E6E2F0E080812A
:1001A000882F90E0807190700097B9F3A6E2B0E0DC
:1001B000E6E2F0E0808180618C93E4E2F0E080810F
:1001C000918190937F0080937E000F900F90CF914C
:1001D000DF9108951F920F920FB60F9211242F9363
:1001E0003F934F935F936F937F938F939F93AF93BF
:1001F000BF93EF93FF93DF93CF93CDB7DEB780919B
:10020000800090918100009729F0E0918000F091AA
:1002100081000995CF91DF91FF91EF91BF91AF914F
:100220009F918F917F916F915F914F913F912F910E
:100230000F900FBE0F901F901895DF93CF9300D0B3
:10024000CDB7DEB79A83898389819A8190938100A3
:10025000809380000F900F90CF91DF910895DF93EE
:10026000CF9300D0CDB7DEB79A838983A1E3B0E006
:10027000E1E3F0E080818F7B8C93EFE4F0E08CE0B1
:100280008083AEE4B0E0EEE4F0E08081282F2F7BA5
:10029000E981FA81828193818295880F880F807C21
:1002A000822B8C93AEE4B0E0EEE4F0E08081282F66
:1002B000287FE981FA8180819181822B8C93ECE403
:1002C000F0E011821082E6E4F0E011821082A9E5EC
:1002D000B0E0E9E5F0E0808180628C930F900F90B0
:1002E000CF91DF910895DF93CF93CDB7DEB7ECE4E4
:1002F000F0E011821082CF91DF910895DF93CF93C8
:10030000CDB7DEB7E6E4F0E080819181CF91DF9157
:100310000895DF93CF9300D0CDB7DEB79A8389835A
:10032000AEE4B0E0EEE4F0E08081982F9F7B89811D
:100330008295880F880F807C892B8C930F900F906B
:10034000CF91DF910895DF93CF9300D0CDB7DEB783
:100350001A824CC0EAE3F0E08A81282F30E080E185
:1003600090E002C0880F991F2A95E2F78083EBE3A3
:10037000F0E08A81282F30E080E190E0022E02C078
:10038000880F991F0A94E2F780958083198228C00C
:10039000E9E3F0E08081282F30E08981882F90E028
:1003A000A90102C0559547958A95E2F7CA01817067
:1003B0009070009791F48981882F90E0880F991FA1
:1003C000880F991F982F8A81890F8F5F0E94FB01E8
:1003D0000F900F90CF91DF91089589818F5F89836E
:1003E00089818430A8F28A818F5F8A838A818430F0
:1003F00008F4B0CFADCFDF93CF9300D000D0CDB70E
:10040000DEB789838981282F30E03C832B838B8161
:100410009C818830910509F470C02B813C81293082
:1004200031055CF58B819C818430910509F459C0BC
:100430002B813C81253031059CF48B819C8182305D
:10044000910509F448C02B813C81233031050CF023
:1004500045C08B819C818130910509F439C067C00A
:100460002B813C812630310509F441C08B819C8170
:10047000873091050CF03EC037C02B813C812C3079
:10048000310509F446C08B819C818D3091055CF467
:100490002B813C812A303105B1F18B819C818B30DD
:1004A0009105A4F52DC02B813C812E303105B9F189
:1004B0008B819C818E3091057CF12B813C812F308A
:1004C000310579F18B819C818031910569F12FC0D3
:1004D00097E09A832EC028E02A832BC039E03A8324
:1004E00028C085E28A8325C094E09A8322C025E053
:1004F0002A831FC036E03A831CC08AE28A8319C06F
:1005000091E09A8316C022E02A8313C033E03A8335
:1005100010C08DE28A830DC09DE09A830AC01A82C2
:1005200008C02DE32A8305C03BE23A8302C08981DB
:100530008A838A810F900F900F900F90CF91DF9157
:100540000895DF93CF93CDB7DEB7E4E3F0E08FEF0C
:100550008083A1E3B0E0E1E3F0E0808187608C93E9
:1005600088E30E94BC028CE00E94BC0281E00E94F1
:10057000BC02CF91DF910895DF93CF93CDB7DEB763
:10058000E9970FB6F894DEBF0FBECDBF89AFA2E3E7
:10059000B0E0E2E3F0E080818E7F8C93A2E3B0E0F4
:1005A000E2E3F0E080818D7F8C9380E090E0A0E832
:1005B000BFE38DAB9EABAFABB8AF6DA97EA98FA9E2
:1005C00098AD20E030E04AE753E40E94BC09DC012A
:1005D000CB0189AB9AABABABBCAB69A97AA98BA9B0
:1005E0009CA920E030E040E85FE30E94160B8823DE
:1005F0002CF481E090E098AB8FA73FC069A97AA95D
:100600008BA99CA920E03FEF4FE757E40E94B60A70
:1006100018164CF56DA97EA98FA998AD20E030E0A1
:1006200040E251E40E94BC09DC01CB01BC01CD01D8
:100630000E94E607DC01CB0198AB8FA70FC089E1D0
:1006400090E09EA78DA78DA59EA50197F1F79EA787
:100650008DA78FA598A9019798AB8FA78FA598A96B
:10066000009769F714C069A97AA98BA99CA90E946F
:10067000E607DC01CB0198AB8FA78FA598A99CA7B3
:100680008BA78BA59CA50197F1F79CA78BA7A2E34D
:10069000B0E0E2E3F0E0808184608C9380E090E061
:1006A000A0E8BFE38FA398A7A9A7BAA76FA178A5D1
:1006B00089A59AA520E030E04AE753E40E94BC09EE
:1006C000DC01CB018BA39CA3ADA3BEA36BA17CA13A
:1006D0008DA19EA120E030E040E85FE30E94160B70
:1006E00088232CF481E090E09AA389A33FC06BA1FA
:1006F0007CA18DA19EA120E03FEF4FE757E40E942F
:10070000B60A18164CF56FA178A589A59AA520E020
:1007100030E040E251E40E94BC09DC01CB01BC01A5
:10072000CD010E94E607DC01CB019AA389A30FC08B
:1007300089E190E098A38F8F8F8D98A10197F1F7B1
:1007400098A38F8F89A19AA101979AA389A389A1C0
:100750009AA1009769F714C06BA17CA18DA19EA1FD
:100760000E94E607DC01CB019AA389A389A19AA183
:100770009E8F8D8F8D8D9E8D0197F1F79E8F8D8F22
:10078000E5E3F0E089AD808380E090E0A0E8BFE39E
:10079000898F9A8FAB8FBC8F698D7A8D8B8D9C8D55
:1007A00020E030E04AE753E40E94BC09DC01CB01C1
:1007B0008D8B9E8BAF8BB88F6D897E898F89988D3D
:1007C00020E030E040E85FE30E94160B88232CF421
:1007D00081E090E09C8B8B8B3FC06D897E898F89F7
:1007E000988D20E03FEF4FE757E40E94B60A1816B5
:1007F0004CF5698D7A8D8B8D9C8D20E030E040E248
:1008000051E40E94BC09DC01CB01BC01CD010E9476
:10081000E607DC01CB019C8B8B8B0FC089E190E05C
:100820009A8B898B89899A890197F1F79A8B898BA1
:100830008B899C8901979C8B8B8B8B899C890097DA
:1008400069F714C06D897E898F89988D0E94E607AB
:10085000DC01CB019C8B8B8B8B899C89988B8F8740
:100860008F8598890197F1F7988B8F87A2E3B0E085
:10087000E2E3F0E080818B7F8C9380E090E0A0E861
:10088000BFE38B879C87AD87BE876B857C858D8515
:100890009E8520E030E04AE753E40E94BC09DC0179
:1008A000CB018F839887A987BA876F8178858985DF
:1008B0009A8520E030E040E85FE30E94160B882331
:1008C0002CF481E090E09E838D833FC06F8178851A
:1008D00089859A8520E03FEF4FE757E40E94B60AEA
:1008E00018164CF56B857C858D859E8520E030E063
:1008F00040E251E40E94BC09DC01CB01BC01CD0106
:100900000E94E607DC01CB019E838D830FC089E145
:1009100090E09C838B838B819C810197F1F79C8372
:100920008B838D819E8101979E838D838D819E8196
:10093000009769F714C06F81788589859A850E9430
:10094000E607DC01CB019E838D838D819E819A8396
:10095000898389819A810197F1F79A838983E9963E
:100960000FB6F894DEBF0FBECDBFCF91DF910895D3
:10097000DF93CF93CDB7DEB7E9970FB6F894DEBF1C
:100980000FBECDBF89AFA2E3B0E0E2E3F0E080812B
:1009900081608C93A2E3B0E0E2E3F0E080818D7FA0
:1009A0008C9380E090E0A0E8BFE38DAB9EABAFAB53
:1009B000B8AF6DA97EA98FA998AD20E030E04AE7D5
:1009C00053E40E94BC09DC01CB0189AB9AABABAB11
:1009D000BCAB69A97AA98BA99CA920E030E040E8CA
:1009E0005FE30E94160B88232CF481E090E098AB23
:1009F0008FA73FC069A97AA98BA99CA920E03FEFE6
:100A00004FE757E40E94B60A18164CF56DA97EA967
:100A10008FA998AD20E030E040E251E40E94BC098B
:100A2000DC01CB01BC01CD010E94E607DC01CB015A
:100A300098AB8FA70FC089E190E09EA78DA78DA5E9
:100A40009EA50197F1F79EA78DA78FA598A901975D
:100A500098AB8FA78FA598A9009769F714C069A9CB
:100A60007AA98BA99CA90E94E607DC01CB0198AB6F
:100A70008FA78FA598A99CA78BA78BA59CA501974D
:100A8000F1F79CA78BA7A2E3B0E0E2E3F0E080815E
:100A900084608C9380E090E0A0E8BFE38FA398A7E8
:100AA000A9A7BAA76FA178A589A59AA520E030E0EB
:100AB0004AE753E40E94BC09DC01CB018BA39CA351
:100AC000ADA3BEA36BA17CA18DA19EA120E030E0CF
:100AD00040E85FE30E94160B88232CF481E090E04D
:100AE0009AA389A33FC06BA17CA18DA19EA120E008
:100AF0003FEF4FE757E40E94B60A18164CF56FA176
:100B000078A589A59AA520E030E040E251E40E9452
:100B1000BC09DC01CB01BC01CD010E94E607DC0170
:100B2000CB019AA389A30FC089E190E098A38F8F8E
:100B30008F8D98A10197F1F798A38F8F89A19AA122
:100B400001979AA389A389A19AA1009769F714C074
:100B50006BA17CA18DA19EA10E94E607DC01CB01C7
:100B60009AA389A389A19AA19E8F8D8F8D8D9E8D29
:100B70000197F1F79E8F8D8FE5E3F0E089AD8083DB
:100B800080E090E0A0E8BFE3898F9A8FAB8FBC8FA5
:100B9000698D7A8D8B8D9C8D20E030E04AE753E49F
:100BA0000E94BC09DC01CB018D8B9E8BAF8BB88F73
:100BB0006D897E898F89988D20E030E040E85FE381
:100BC0000E94160B88232CF481E090E09C8B8B8B89
:100BD0003FC06D897E898F89988D20E03FEF4FE778
:100BE00057E40E94B60A18164CF5698D7A8D8B8DE4
:100BF0009C8D20E030E040E251E40E94BC09DC0121
:100C0000CB01BC01CD010E94E607DC01CB019C8B2E
:100C10008B8B0FC089E190E09A8B898B89899A89A7
:100C20000197F1F79A8B898B8B899C8901979C8B13
:100C30008B8B8B899C89009769F714C06D897E899D
:100C40008F89988D0E94E607DC01CB019C8B8B8BF2
:100C50008B899C89988B8F878F8598890197F1F76D
:100C6000988B8F87A2E3B0E0E2E3F0E080818B7F96
:100C70008C9380E090E0A0E8BFE38B879C87AD87F2
:100C8000BE876B857C858D859E8520E030E04AE7B8
:100C900053E40E94BC09DC01CB018F839887A987AC
:100CA000BA876F81788589859A8520E030E040E8B1
:100CB0005FE30E94160B88232CF481E090E09E8372
:100CC0008D833FC06F81788589859A8520E03FEFCD
:100CD0004FE757E40E94B60A18164CF56B857C85E1
:100CE0008D859E8520E030E040E251E40E94BC0901
:100CF000DC01CB01BC01CD010E94E607DC01CB0188
:100D00009E838D830FC089E190E09C838B838B81D0
:100D10009C810197F1F79C838B838D819E81019744
:100D20009E838D838D819E81009769F714C06F81AA
:100D3000788589859A850E94E607DC01CB019E8330
:100D40008D838D819E819A83898389819A81019780
:100D5000F1F79A838983E9960FB6F894DEBF0FBE48
:100D6000CDBFCF91DF910895DF93CF9300D00F9245
:100D7000CDB7DEB79B838A8319820EC08981282F65
:100D800030E08A819B81FC01E20FF31F80810E9489
:100D9000B80489818F5F89838981282F30E08A8117
:100DA0009B81FC01E20FF31F8081882339F70F90AC
:100DB0000F900F90CF91DF910895DF93CF9300D0E4
:100DC00000D00F92CDB7DEB78A836B838A81282F3C
:100DD00030E03D832C838C819D8181309105C1F071
:100DE0002C813D81223031052CF48C819D8100972E
:100DF00061F019C02C813D812230310569F08C8170
:100E00009D818330910561F00EC08B8189830BC079
:100E10008B81805C898307C08B81805F898303C05D
:100E20008B81805B8983898180680E94BC020F90DE
:100E30000F900F900F900F90CF91DF910895DF9357
:100E4000CF9300D000D0CDB7DEB789836A835C83AF
:100E50004B8389816A810E94DD068B819C810E947F
:100E6000B4060F900F900F900F90CF91DF910895DF
:100E7000DF93CF93CDB7DEB762970FB6F894DEBF9E
:100E80000FBECDBF9A8B898B89899A899E012F5F6E
:100E90003F4FB9014AE050E00E94770DCE01019624
:100EA0000E94B40662960FB6F894DEBF0FBECDBFA7
:100EB000CF91DF910895DF93CF93CDB7DEB781E077
:100EC0000E94BC02CF91DF910895DF93CF930F92E0
:100ED000CDB7DEB78983E2E5F0E01082ECE5F0E023
:100EE00089818083E3E5F0E08AE680830F90CF91EB
:100EF000DF910895DF93CF93CDB7DEB70E94A707A8
:100F00000E94A10280E690E00E9469000E945B07B7
:100F10000E94BC0788E690E00E94B40680E06CE086
:100F20000E94DD0680E690E00E94AB0080917E008A
:100F300090917F000E94380780917E0090917F0001
:100F400096958795969587950E946507E7CFDF93DD
:100F5000CF93CDB7DEB7A7E3B0E0E7E3F0E0808161
:100F60008B608C93A8E3B0E0E8E3F0E080818C7FB5
:100F70008C93CF91DF910895DF93CF93CDB7DEB7F8
:100F8000A8E3B0E0E8E3F0E080818E7F8C93A8E3F3
:100F9000B0E0E8E3F0E0808182608C93CF91DF9154
:100FA0000895DF93CF93CDB7DEB7A8E3B0E0E8E3D1
:100FB000F0E080818D7F8C93A8E3B0E0E8E3F0E07F
:100FC000808181608C93CF91DF910895EF92FF92A1
:100FD0000F931F937B018C0120E030E040E05FE441
:100FE0000E94E60A88238CF0C801B70120E030E0B7
:100FF00040E05FE40E945E090E94460B9B01AC0149
:10100000205030404040504806C0C801B7010E94FF
:10101000460B9B01AC01B901CA011F910F91FF90D2
:10102000EF900895A0E0B0E0E8E1F8E00C94400D06
:10103000DC012B01FA019C91923008F439C1EB01DB
:101040008881823008F433C1943069F4843009F027
:101050002FC111969C9111978981981709F428C185
:10106000A5E7B0E025C1843009F421C18230A9F49C
:10107000923009F01DC19A01AD0188E0EA010990A2
:10108000AE01E90109929E018150C1F7E201898117
:1010900011969C918923818308C1923009F407C17C
:1010A00012962D903C901397EB018A819B811496A8
:1010B000AD90BD90CD90DC901797EC80FD800E81B7
:1010C0001F819101281B390BB90137FF04C0662726
:1010D0007727621B730B603271050CF061C012162A
:1010E00013066CF537014801062E04C096948794C8
:1010F000779467940A94D2F721E030E040E050E022
:1011000004C0220F331F441F551F6A95D2F7215088
:101110003040404050402E213F2140235123211593
:1011200031054105510521F021E030E040E050E07B
:1011300079018A01E628F728082919293CC0232BC0
:10114000D1F1260E371E35014601062E04C09694B5
:101150008794779467940A94D2F721E030E040E0D6
:1011600050E004C0220F331F441F551F6A95D2F769
:1011700021503040404050402A213B214C215D21EC
:10118000211531054105510521F021E030E040E015
:1011900050E059016A01A628B728C828D9280BC0F1
:1011A000821593052CF01C01AA24BB24650103C001
:1011B000EE24FF24870111969C91D20111968C9107
:1011C000981709F445C0992339F0A80197012A1905
:1011D0003B094C095D0906C0A60195012E193F097E
:1011E000400B510B57FD08C01182338222822483A9
:1011F0003583468357831DC081E0818333822282F9
:1012000088279927DC01821B930BA40BB50B8483E1
:101210009583A683B7830DC0220F331F441F551F2C
:1012200024833583468357838281938101979383F7
:1012300082832481358146815781DA01C901019772
:10124000A109B1098F5F9F4FAF4FBF4328F30BC078
:10125000918333822282EA0CFB1C0C1D1D1DE4824B
:10126000F5820683178383E080832481358146815C
:10127000578157FF1AC0C901AA2797FDA095BA2F19
:1012800081709070A070B0705695479537952795EE
:10129000822B932BA42BB52B84839583A683B783B2
:1012A00082819381019693838283DF0101C0D20101
:1012B000CD01CDB7DEB7E2E10C945C0DA0E2B0E069
:1012C000E4E6F9E00C944C0D69837A838B839C836C
:1012D0002D833E834F835887E9E0EE2EF12CEC0EF0
:1012E000FD1ECE010196B7010E946F0C8E010F5EAC
:1012F0001F4FCE010596B8010E946F0C8A8991E0BC
:1013000089278A8BC701B801AE01475E5F4F0E94F3
:1013100012080E949A0BA096E6E00C94680DA0E2D9
:10132000B0E0E5E9F9E00C944C0D69837A838B8396
:101330009C832D833E834F835887F9E0EF2EF12C59
:10134000EC0EFD1ECE010196B7010E946F0C8E01BE
:101350000F5E1F4FCE010596B8010E946F0CC701AA
:10136000B801AE01475E5F4F0E9412080E949A0BBF
:10137000A096E6E00C94680DA0E2B0E0E2ECF9E0A3
:101380000C94400D69837A838B839C832D833E83E9
:101390004F835887CE010196BE01675F7F4F0E9441
:1013A0006F0CCE010596BE016F5E7F4F0E946F0CE1
:1013B0009985923088F089898230C8F0943019F488
:1013C000823051F404C0843029F4923081F485E7EE
:1013D00090E0C6C0923049F420E09A858A8998133B
:1013E00021E02A87CE010996BBC0823049F420E073
:1013F0009A858A89981321E02A8BCE014196B0C044
:101400002D843E844F8458886D887E888F88988C80
:10141000EE24FF248701AA24BB24650140E050E0AC
:1014200060E070E0E0E0F0E0C10181709070892B35
:10143000E9F0E60CF71C081D191D9A01AB012A0DF5
:101440003B1D4C1D5D1D80E090E0A0E0B0E0E61487
:10145000F7040805190520F481E090E0A0E0B0E071
:10146000BA01A901480F591F6A1F7B1FAA0CBB1C98
:10147000CC1CDD1C97FE08C081E090E0A0E0B0E04D
:10148000A82AB92ACA2ADB2A3196E032F10549F0A6
:10149000660C771C881C991C5694479437942794A3
:1014A000C3CFFA85EA892B893C898B859C85280FD7
:1014B000391F2E5F3F4F17C0CA0181709070892B72
:1014C00061F016950795F794E79480E090E0A0E02E
:1014D000B0E8E82AF92A0A2B1B2B769567955795D1
:1014E00047952F5F3F4F77FDE7CF0CC0440F551F47
:1014F000661F771F17FD4160EE0CFF1C001F111FB8
:1015000021503040403090E0590790E0690790E466
:10151000790760F32B8F3C8FDB01CA018F779070C6
:10152000A070B07080349105A105B10561F447FD4C
:101530000AC0E114F1040105110529F0405C5F4F78
:101540006F4F7F4F40781A8EFE1711F081E08A8F1F
:101550004D8F5E8F6F8F78A383E0898FCE01499680
:101560000E949A0BA096E2E10C945C0DA8E1B0E019
:10157000ECEBFAE00C944C0D69837A838B839C83AB
:101580002D833E834F83588789E0E82EF12CEC0EA3
:10159000FD1ECE010196B7010E946F0C8E010F5EF9
:1015A0001F4FCE010596B8010E946F0C89858230CD
:1015B00040F08989823028F0C701B8010E94E70C09
:1015C00001C08FEF6896E6E00C94680DA8E1B0E0EA
:1015D000ECEEFAE00C944C0D69837A838B839C8348
:1015E0002D833E834F83588789E0E82EF12CEC0E43
:1015F000FD1ECE010196B7010E946F0C8E010F5E99
:101600001F4FCE010596B8010E946F0C898582306C
:1016100040F08989823028F0C701B8010E94E70CA8
:1016200001C08FEF6896E6E00C94680DA8E1B0E089
:10163000ECE1FBE00C944C0D69837A838B839C83F3
:101640002D833E834F83588789E0E82EF12CEC0EE2
:10165000FD1ECE010196B7010E946F0C8E010F5E38
:101660001F4FCE010596B8010E946F0C898582300C
:1016700040F08989823028F0C701B8010E94E70C48
:1016800001C081E06896E6E00C94680DACE0B0E043
:10169000ECE4FBE00C94500D69837A838B839C838C
:1016A000CE010196BE016B5F7F4F0E946F0C8D8152
:1016B000823061F1823050F1843021F48E818823B0
:1016C00051F12EC02F81388537FD20C06E812F311A
:1016D00031051CF06623F9F023C08EE190E0821BF7
:1016E000930B29853A854B855C8504C056954795B3
:1016F000379527958A95D2F76623B1F05095409596
:10170000309521953F4F4F4F5F4F0EC020E030E0A6
:1017100040E050E009C02FEF3FEF4FEF5FE704C01C
:1017200020E030E040E050E8B901CA012C96E2E048
:101730000C946C0DDF92EF92FF920F931F93FC01BC
:10174000E480F58006811781D1808081823048F461
:1017500080E090E0A0E1B0E0E82AF92A0A2B1B2BF8
:10176000A5C0843009F49FC0823021F4EE24FF2408
:10177000870105C0E114F1040105110519F4E0E049
:10178000F0E096C0628173819FEF623879070CF0B8
:101790005BC022E83FEF261B370B2A3131052CF0C6
:1017A00020E030E040E050E02AC0B801A701022E5E
:1017B00004C076956795579547950A94D2F781E0CE
:1017C00090E0A0E0B0E004C0880F991FAA1FBB1FE3
:1017D0002A95D2F70197A109B1098E219F21A02353
:1017E000B1230097A105B10521F081E090E0A0E0D0
:1017F000B0E09A01AB01282B392B4A2B5B2BDA0185
:10180000C9018F779070A070B07080349105A105E8
:10181000B10539F427FF09C0205C3F4F4F4F5F4FA0
:1018200004C0215C3F4F4F4F5F4FE0E0F0E02030BD
:10183000A0E03A07A0E04A07A0E45A0710F0E1E070
:10184000F0E079018A0127C06038710564F5FB0179
:10185000E158FF4FD801C7018F779070A070B0702A
:1018600080349105A105B10539F4E7FE0DC080E48F
:1018700090E0A0E0B0E004C08FE390E0A0E0B0E032
:10188000E80EF91E0A1F1B1F17FF05C016950795C6
:10189000F794E794319687E016950795F794E794C7
:1018A0008A95D1F705C0EE24FF248701EFEFF0E021
:1018B0006E2F679566276795902F9F77D794DD24C5
:1018C000D7948E2F8695492F462B582F5D29B70127
:1018D000CA011F910F91FF90EF90DF900895FC01D6
:1018E000DB01408151812281622F6F7770E0221FDE
:1018F0002227221F9381892F880F822B282F30E0E7
:10190000991F9927991F11969C93119721153105BD
:10191000A9F5411551056105710511F482E037C043
:1019200082E89FEF13969C938E9312979A01AB01D6
:1019300067E0220F331F441F551F6A95D1F783E0DC
:101940008C930DC0220F331F441F551F12968D918B
:101950009C911397019713969C938E931297203026
:1019600080E0380780E0480780E4580758F3149671
:101970002D933D934D935C93179708952F3F310519
:1019800079F4411551056105710519F484E08C93D2
:10199000089564FF03C081E08C9312C01C9210C0B4
:1019A0002F57304013963C932E93129783E08C93DD
:1019B00087E0440F551F661F771F8A95D1F7706423
:1019C00014964D935D936D937C93179708951F9391
:1019D000DC01FB019C91923008F447C08081823089
:1019E00008F443C0943051F411961C91843099F559
:1019F0008181682F70E0611B71093FC0843021F044
:101A0000923031F48230B9F18181882389F12DC07F
:101A100011961C9111978230F1F081811817D9F439
:101A200012962D913C91139782819381821793078F
:101A300094F028173907BCF014968D919D910D9064
:101A4000BC91A02D24813581468157812817390703
:101A50004A075B0718F4112341F00AC08217930765
:101A6000A407B50740F4112319F061E070E005C048
:101A70006FEF7FEF02C060E070E0CB011F9108952F
:101A80002F923F924F925F926F927F928F929F928E
:101A9000AF92BF92CF92DF92EF92FF920F931F937C
:101AA000CF93DF93CDB7DEB7CA1BDB0B0FB6F8942D
:101AB000DEBF0FBECDBF09942A88398848885F846D
:101AC0006E847D848C849B84AA84B984C884DF80DE
:101AD000EE80FD800C811B81AA81B981CE0FD11DC2
:101AE0000FB6F894DEBF0FBECDBFED010895FB0128
:101AF0009F01E8944230C4F04532B4F44A3029F4EE
:101B000097FB1EF4909581959F4F642F77270E9435
:101B1000A80D805D8A330CF0895D8193CB0100971D
:101B2000A1F716F45DE251931082C9010C94980D4F
:101B3000DC01FC01672F71917723E1F7329704C034
:101B40007C916D9370836291AE17BF07C8F30895BF
:101B5000AA1BBB1B51E107C0AA1FBB1FA617B707D3
:101B600010F0A61BB70B881F991F5A95A9F78095EF
:0C1B70009095BC01CD010895F894FFCFC2
:101B7C0000000000000002004144432056616C75D7
:0E1B8C0065203D200000000000000000000069
:00000001FF
